:100000000C9427020C946E020C946E020C946E02F7
:100010000C946E020C946E020C946E020C946E02A0
:100020000C946E020C946E020C940A0D0C94DC0D70
:100030000C946E020C946E020C946E020C946E0280
:100040000C946E020C94EF210C946E020C946E02D0
:100050000C946E020C94821B0C946E020C946E0233
:100060000C946E020C946E020C946E020C946E0250
:100070000C946E020C946E020C946E020C946E0240
:100080000C946E020C946E020C946E020C946E0230
:100090000C946E020C946E020C946E020C946E0220
:1000A0000C946E020C946E020C946E02490E6B0E50
:1000B000590F6B0E590FB00ED30E590F280F3B0F6F
:1000C0000A120A123912391277129712C613C6137E
:1000D000A212C61352135213B713C613C613C0137A
:1000E0005F135F135F135F135F135F135F135F1380
:1000F0005F135F135F135F135F135F135F135F1370
:100100006F137C1383138A1394130000F0A135003E
:100110002B002971E100007F00001E001400040084
:100120001D006E00E2001F001A0016001B00E20016
:10013000E300200008000700060050002C0021000A
:100140001500090019004F00A800220017000A003E
:1001500005000000AA0023002F0000000154000049
:10016000A90066003000000001540000AB0024002C
:100170001C000B0011000000AE00250018000D004F
:1001800010005200AC0026000C000E00360051009A
:100190002800270012000F00370029712A002D00C7
:1001A0001300330038006E00E2002E0031003400EE
:1001B000E5000077000001000100010001000100DE
:1001C00000003A001E0220022202010001003B0052
:1001D0001F0221022302010001003C002F0226021F
:1001E0002F00010001003D00300227023000010015
:1001F00001003E00310235003502000001003F00E1
:1002000001000000010000000100400001000000AA
:1002100001000000010041005200510024020000D2
:1002200001004200240021001E00270001004300BD
:10023000250022001F0027000100440026002300A3
:10024000200037000100450025022E0238002E0054
:10025000010001000100010001000100000016037F
:100260004500720067006F0044006F0078002000B6
:1002700045005A00000016034500720067006F0039
:1002800044006F007800200045005A00000004037D
:10029000090409026D00040100A0FA09040000012C
:1002A000030101000921110100012240000705811D
:1002B0000308000A090401000103010200092111D9
:1002C000010001224D000705820308000A0904020B
:1002D000000103000000092111010001223600077E
:1002E00005830308000A0904030001030000000954
:1002F00021110100012239000705840310000112B9
:1003000001100100000008EDFE07130100010200CA
:100310000105010906A101050719E029E7150025D6
:1003200001950875018102050819012905950575D2
:1003300001910295017503910105071900297715AF
:10034000002501957875018102C005010980A10190
:10035000850216010026B7001A01002AB7007510A1
:1003600095018100C0050C0901A10185031601005A
:10037000269C021A01002A9C02751095018100C07A
:1003800005010902A1010901A100050919012905B9
:1003900015002501950575018102950175038101FF
:1003A0000501093009311581257F950275088106FF
:1003B00009381581257F950175088106050C0A38D5
:1003C000021581257F950175088106C0C0050109C8
:1003D00006A101050719E029E71500250195087513
:1003E000018102950175088101050819012905950A
:1003F0000575019102950175039101050719002901
:10040000FF150026FF00950675088100C00000005A
:100410000000000000000000010204060A0F17207F
:100420002C3A4A5D71879DB3C7DAE9F5FCFFFCF50C
:10043000E9DAC7B39D87715D4A3A2C20170F0A0687
:100440000402010000000000000000000000112470
:100450001FBECFEFDAE0DEBFCDBF04B603FE27C07C
:100460008091FB019091FC01A091FD01B091FE01F2
:100470008730904BA740B04BD1F41092FB01109203
:10048000FC011092FD011092FE0114BE84B7877F1B
:1004900084BF0FB6F894A89580916000886180931E
:1004A0006000109260000FBEE0E0FFE3099511E0EC
:1004B000A0E0B1E0E8E8F7E402C005900D92A433B3
:1004C000B107D9F711E0A4E3B1E001C01D92AB3F41
:1004D000B107E1F70E944F0A0C94C2230C9400006C
:1004E0001092B9008AE08093B800089594EA90933E
:1004F000BC009091BC0097FFFCCF9091B900987F11
:10050000983021F0903111F081E008958093BB0084
:1005100084E88093BC008091BC0087FFFCCF809171
:10052000B900887F883111F0803471F780E0089538
:1005300084E98093BC008091BC0084FDFCCF0895C9
:100540008093BB0084E88093BC008091BC0087FF4F
:10055000FCCF9091B900987F81E0983209F480E057
:10056000089584E88093BC008091BC0087FFFCCF95
:100570008091BB00089580910101811115C080E434
:100580000E9476028093010181110CC082E10E94D9
:10059000A00280930101811105C08FEF0E94A0028B
:1005A000809301010E94980284B1807F84B985B153
:1005B000807F85B98AB1837F8AB98BB1837F8BB9FC
:1005C0003E98469808950E947604809301010E9407
:1005D000BB0280B38C7080BB81B3836F81BBA5E30A
:1005E000B1E0E3E4F1E08EE08E0F11921D928E13E4
:1005F000FCCF0C946004BF92CF92DF92EF92FF92F7
:100600000F931F93CF93DF9380910101882379F09B
:10061000809134018F5F80933401811108C00E9462
:10062000760480930101811102C00E94080405E351
:1006300011E0C0E0D0E0DD24D39482E0C82EEE24A7
:10064000E394F12CC730D10500F5809101018111AF
:1006500064C080E40E94760280930101811112C07F
:1006600082E10E94A0028093010181110BC0C701A9
:100670000C2E01C0880F0A94EAF780950E94A00210
:10068000809301010E94980248C0CA30A1F028F46A
:10069000C83059F0C93061F005C0CC3089F070F035
:1006A000CD3089F0209A289810C0219A29980DC041
:1006B000229A2A980AC0239A2B9807C0529A01C0FE
:1006C000539A5B9802C03E9A469890EA9A95F1F741
:1006D0009FB1799902C082E001C080E091709D25B0
:1006E000982B7C9902C084E001C080E0892B7D9921
:1006F00002C038E001C030E0832B7E9902C020E1C7
:1007000001C020E0822B9FB19095991F9927991FD6
:100710009295990F907E892B0FC0809101018111D4
:1007200049C080E40E94760280930101882379F118
:10073000B12C0E9498028B2DF8019081981719F026
:100740008083C09200010E94BB0221960F5F1F4F61
:10075000CE30D10509F076CF80910001882361F178
:10076000815080930001882339F08FE99FE0019741
:10077000F1F700C0000020C0A3E4B1E0E5E3F1E040
:10078000CF01825F91919D938E13FCCF15C083E1C1
:100790000E94A002809301018111CACF81E40E94CE
:1007A0007602809301018111C3CF0E94B102B82E5D
:1007B000B094BFCF80E0C0CF0E94060481E0DF91FB
:1007C000CF911F910F91FF90EF90DF90CF90BF904E
:1007D0000895E82FF0E0ED5BFE4F808108950895C5
:1007E0000F931F93CF93DF93C3E4D1E010E00C2F5E
:1007F000025F899190E00E94A51A180F0C13F9CF9F
:10080000812FDF91CF911F910F9108950C94D60401
:1008100056985E9825982D9826982E9827982F9868
:100820008FEF90E0909389008093880090938B00E5
:1008300080938A0090938D0080938C00259A2D9A46
:100840002FEF80E792E0215080409040E1F700C018
:100850000000269A2E9A2FEF80E792E021508040E8
:100860009040E1F700C00000279A2F9A2FEF80E711
:1008700092E0215080409040E1F700C000002598B0
:100880002D982FEF80E792E0215080409040E1F7D3
:1008900000C0000026982E982FEF80E792E02150AC
:1008A00080409040E1F700C0000027982F985698AC
:1008B0005E9825982D9826982E9827982F98089519
:1008C00089EA8093800089E08093810024982C98A5
:1008D0003F988AB18F748AB96E98479A8BB1806BB2
:1008E0008BB9769A0E9408040C94D50480E2809318
:1008F00001018091510181110EC00E94700281E0BE
:10090000809351012FEF83ED90E321508040904080
:10091000E1F700C0000080E40E94760280930101AC
:1009200081112EC00E94A00280930101811128C074
:100930000E94A00280930101811122C08FE30E94D6
:10094000A0028093010181111BC00E94980280E4E3
:100950000E94760280930101811112C08CE00E94F6
:10096000A0028093010181110BC00E94A00280931C
:100970000101811105C08FE30E94A0028093010153
:100980000E94980280910101089561110BC0FC0141
:100990008281882321F085EE0E94AE1003C085EE8F
:1009A0000E94761180E090E0089508956091BD0165
:1009B0007091BE018091BF019091C0010E94B11A57
:1009C00056985E9825982D9826982E9827982F98B7
:1009D000813011F4259A2D9A089581E0089581E0DF
:1009E00008950C94EF0408950F931F93CF93DF9312
:1009F0008C01FC01C081D181CE010E942A19BE0167
:100A00000E949D05EC01B8010E94F104882309F4BD
:100A10008DC0F8018281882309F44AC080915D016C
:100A200081111FC0C431F0E5DF0709F051C00E94F9
:100A3000F30481E080935D010E944C1B90935C0164
:100A400080935B011092540110925601109255014F
:100A5000109258011092570110925A0110925901A8
:100A600065C080915B0190915C010E94581B883C9D
:100A7000910570F480915401E82FF0E0EE0FFF1F14
:100A8000EB5AFE4FD183C0838F5F809354014EC0D9
:100A9000C43880E5D80721F0C538D04501F13AC007
:100AA000F8018281882341F01092520182E01EC039
:100AB000C438E0E5DE0759F580915201811106C086
:100AC00086E20E94AE1086E20E94761182E01CC08F
:100AD000C438F0E5DF0741F3C538D045D9F4F80153
:100AE0008281882331F01092530180E20E94C51167
:100AF0001DC080915301811106C087E20E94AE1093
:100B000087E20E94761180E20E94CC110FC0C538A6
:100B1000D04529F381E08093520180935301C801AD
:100B2000DF91CF911F910F910C94ED0480E0DF9144
:100B3000CF911F910F910895089596E0799FF0014C
:100B4000112494E5899FE00DF11D1124E60FF11D9C
:100B5000EE0FFF1FE25FFE4F859194910895880F7D
:100B6000991FFC01E657F040859194910895880FF4
:100B7000991FFC01E65FFE4F8591949108950F93B4
:100B80001F93CF93DF93EC018115904350F5C1156E
:100B900080E2D80708F0C3C0CB3BD10590F4C83A37
:100BA000D10508F06AC0C53AD10508F05BC0C43071
:100BB000D10508F0D0C1219709F0CAC101E010E0C9
:100BC0000AC2CF3FD10511F008F0C5C1C03FD10521
:100BD00008F0A2C0CE01805E9109089708F4BBC15D
:100BE000B7C1C13090E5D90709F4A2C020F5C031E2
:100BF0008FE4D80770F4C11590E4D90708F094C0C9
:100C0000C11521E3D20708F0A3C1DD278E01106CC6
:100C1000E2C1C115D04509F09BC10E9431148FEF8C
:100C200094E32CE0815090402040E1F700C00000A8
:100C30000E94A71BD0C1C11597E5D90758F4C03150
:100C400021E5D20708F01CC1C43180E5D80708F4BB
:100C500075C07EC1CE0190578115904108F078C1D2
:100C6000DF7073C1C53AD10509F477C1C63AD10521
:100C700009F076C102E810E4AEC1C83AD10509F422
:100C800072C1C93AD10509F471C1CA3AD10509F452
:100C900070C1CB3AD10509F46FC1CC3AD10509F442
:100CA0006EC1CD3AD10509F46DC1C03BD10509F43F
:100CB0006CC1CE3AD10509F46BC1CF3AD10509F424
:100CC0006AC1C13BD10509F469C1C23BD10509F430
:100CD00068C1C33BD10509F467C1C43BD10509F420
:100CE00066C1C53BD10509F465C1C63BD10509F410
:100CF00064C1C73BD10509F463C1C83BD10509F400
:100D000062C1C93BD10509F461C1CA3BD10509F4EF
:100D100060C100E014E45FC18E0110655CC1CE01CA
:100D20009F700E94B70558C1DF708E01106A53C1D1
:100D30008091DA0181608093DA014DC10E944C1DDF
:100D4000811102C00E94321D0E94691D90E09093A3
:100D5000FB018093FA01C23080E5D80721F480912D
:100D6000FA01816086C0C43090E5D90721F48091F2
:100D7000FA0182607EC0C63020E5D20721F480915E
:100D8000FA01846076C0C83080E5D80719F48091F4
:100D9000FA0127C0CA3090E5D90721F48091FA0101
:100DA000806167C0CC3020E5D20721F48091FA0140
:100DB00080625FC0CE3080E5D80721F48091FA01CF
:100DC000806457C0C03190E5D90721F48091FA01C1
:100DD00080684FC0C23120E5D20729F48091FA0122
:100DE0008460886046C0C33080E5D80721F48091D4
:100DF000FA018E7F3EC0C53090E5D90721F480917D
:100E0000FA018D7F36C0C73020E5D20721F48091EA
:100E1000FA018B7F2EC0C93080E5D80719F4809184
:100E2000FA0126C0CB3090E5D90721F48091FA0170
:100E30008F7E1FC0CD3020E5D20721F48091FA01CA
:100E40008F7D17C0CF3080E5D80721F48091FA015B
:100E50008F7B0FC0C13190E5D90721F48091FA0151
:100E60008F7707C0C331D04531F48091FA018B7F71
:100E7000877F8093FA018091FA010E946D1DABC0BB
:100E80008D2F99278F70992781309105D9F49E0174
:100E90002370332702C0880F991F2A95E2F79C68B8
:100EA0008E0144E0000F111F4A95E1F700271370EF
:100EB000802B912B53E0CC0FDD1F5A95E1F7C076C4
:100EC000DD272FC08230910531F4DC2FCC278E0135
:100ED000016F106A80C08330910569F4CE01837080
:100EE000992701E010E002C0000F111F8A95E2F778
:100EF000C8019C680FC084309105B9F4CE0183709D
:100F0000992701E010E002C0000F111F8A95E2F757
:100F1000C8019A6823E0CC0FDD1F2A95E1F7C07E57
:100F2000D7708C010C2B1D2B56C08530910531F4E8
:100F3000DC2FCC278E01046F106A4DC0069709F094
:100F40004AC0CF71DD27DC2FCC278E01106243C051
:100F500000E010E040C08E013EC001E810E43BC05C
:100F600003E810E438C002EE14E435C009EE14E4DE
:100F700032C00AEE14E42FC005EB14E42CC006EBDB
:100F800014E429C007EB14E426C00CEC14E423C0DD
:100F90000DEC14E420C003E815E41DC00AE815E4D4
:100FA0001AC002E915E417C004E915E414C001E20F
:100FB00016E411C003E216E40EC004E216E40BC00E
:100FC00005E216E408C006E216E405C007E216E4EE
:100FD00002C00AE216E4C801DF91CF911F910F9180
:100FE000089596E0799FF001112494E5899FE00D22
:100FF000F11D1124E60FF11DEE0FFF1FE25FFE4F02
:1010000085919491803E9105E0F4803C910558F5DE
:101010008133910509F46FC048F48932910509F4D0
:1010200063C08A32910509F46DC072C0893391059D
:10103000E9F082389105D1F08533910509F44DC06E
:1010400067C0833E910581F138F4803E9105B9F087
:10105000823E9105D9F05CC0863E910561F1873EE4
:101060009105A1F155C00E94AF0508952091FA01A4
:1010700020FD02C021FF4CC080EE90E049C080916D
:10108000FA0180FFF9CF89E390E042C08091FA0134
:1010900082FF0EC08091FA0184FF03C080E090E0DF
:1010A00037C083EE90E034C08091FA0182FFF2CF26
:1010B00082EE90E02DC08091FA0183FF0BC08091F9
:1010C000FA0184FDEBCF87EE90E022C08091FA0117
:1010D00083FFF5CF86EE90E01BC08091FA0185FF7B
:1010E00007C089E290E014C08091FA0185FFF9CF32
:1010F00085E390E00DC08091FA0186FF07C08AE287
:1011000090E006C08091FA0186FFF9CF81E390E07C
:101110000E94BF05089508950C948B0880916E017C
:101120000895CF93DF9300D01F92CDB7DEB79C0117
:101130008091F101843019F593E099833B832A83F0
:101140009093E9008FEF9091E800815095FD06C0E3
:1011500095ED9A95F1F700008111F5CF8091E800A7
:1011600085FF0DC040E050E063E070E0CE010196E5
:101170000E94FA0A8091E8008E778093E8000F9031
:101180000F900F90DF91CF910895CF93DF9300D010
:101190001F92CDB7DEB72091F101243021F522E076
:1011A00029839B838A8383E08093E9008FEF90916A
:1011B000E800815095FD06C095ED9A95F1F7000085
:1011C0008111F5CF8091E80085FF0DC040E050E02F
:1011D00063E070E0CE0101960E94FA0A8091E80077
:1011E0008E778093E8000F900F900F90DF91CF9152
:1011F00008952091F1012430F1F422E02093E900D8
:101200002FEF3091E800215035FD06C035ED3A95BD
:10121000F1F700002111F5CF2091E80025FF0BC068
:1012200040E050E065E070E00E94FA0A8091E8003A
:101230008E778093E8000895CF93DF93EC0190912F
:10124000F101943009F046C080910C018823D9F057
:1012500080910D018823B9F09093E9008FEF909170
:10126000E800815095FD06C095E19A95F1F70000E0
:101270008111F5CF8091E80085FF2CC040E050E05F
:1012800060E170E017C081E08093E9008FEF9091FA
:10129000E800815095FD06C095ED9A95F1F70000A4
:1012A0008111F5CF8091E80085FF14C040E050E047
:1012B00068E070E0CE010E94FA0A8091E8008E7723
:1012C0008093E80080E1FE01AEE5B1E001900D926F
:1012D0008A95E1F7DF91CF9108958091F001811116
:1012E00009C00E948F0C0E94EC0C8091E200846087
:1012F0008093E20008951092F001089508950C94EF
:10130000DC210E943D1B0E94E2210E94920F0C945E
:101310008C0842E061EC81E00E94090C42E061EC43
:1013200082E00E94090C42E061EC83E00E94090C1B
:1013300042E161EC84E00C94090C8091F30183306C
:1013400009F455C030F4813071F0823009F48EC058
:1013500008958A3009F47AC08B3009F460C089306E
:1013600009F09CC020C08091F201813A09F096C03A
:101370008091E800877F8093E8008091F60190914A
:10138000F701892B21F460E18EE591E003C060E074
:1013900080E090E070E00E94450B8091E8008B7740
:1013A0008093E80008958091F201813209F076C0BF
:1013B0008091F6019091F701009719F0039709F0D9
:1013C0006DC08091E800877F8093E8008091E800FD
:1013D00082FD05C08091F1018111F8CF5FC080913D
:1013E000F10080936E018091E8008B7753C080916B
:1013F000F201813A09F052C08091F6019091F70113
:10140000892B09F04BC08091E800877F8093E8002A
:101410008091E80080FFFCCF80910C0136C0809164
:10142000F2018132D9F58091F6019091F701892B73
:10143000A9F58091E800877F8093E8000E943E0C28
:101440008091F40180930C010C9431148091F2018D
:10145000813221F58091E800877F8093E8000E9427
:101460003E0C8091F50180936F0108958091F20107
:10147000813AA1F48091E800877F8093E800809111
:10148000E80080FFFCCF80916F018093F100809194
:10149000E8008E778093E8000C943E0C089584B7A2
:1014A000877F84BF0FB6F894A8958091600088610B
:1014B00080936000109260000FBE80E8809361000E
:1014C000109261000E94E10F0E948F0C0E94EC0CB0
:1014D0008091E20084608093E20078940E94720F11
:1014E0000E94E30F82E091E00E948D0F0E94CA21CA
:1014F0008091F101853069F40E94011B8091EF0118
:101500008823B1F30E942F1B882391F30E94E40AE1
:10151000EFCF0E94E90FECCF292F3327233031057D
:10152000C9F064F42130310581F02230310509F031
:1015300043C08DE690E022E932E042C0213231051D
:10154000F1F02232310541F137C082E190E02FEF16
:1015500032E036C099278130910541F08230910503
:1015600041F0892B49F5EEE8F2E005C0E6E7F2E04C
:1015700002C0EEE5F2E0849190E09F0121C064306A
:10158000D8F4E62FF0E0EE0FFF1FEE5DFE4F208156
:10159000318189E090E014C0643070F470E0FB01A8
:1015A000EE0FFF1FE65EFE4F20813181FB01EA5EF8
:1015B000FE4F808190E004C080E090E020E030E0C9
:1015C000FA0131832083089580E189BD82E189BDDC
:1015D00009B400FEFDCF8091D8008F7D8093D800A4
:1015E0008091E00082608093E0008091E00081FDC6
:1015F000FCCF0895CF92DF92EF92FF920F931F934B
:10160000CF93DF93EC018B016A010E945D0C811185
:1016100033C0C114D10439F0F60180819181081BD7
:10162000190BC80FD91FE12CF12C0115110519F167
:101630008091E80085FD16C08091E8008E77809348
:10164000E800C114D10449F0F60180819181E80ECF
:10165000F91EF182E08285E00FC00E945D0C8823B4
:1016600021F30AC089918093F10001501109FFEF25
:10167000EF1AFF0ADACF80E0DF91CF911F910F912F
:10168000FF90EF90DF90CF9008952091F801309176
:10169000F9012617370748F06115710539F42091D3
:1016A000E8002E772093E80001C0B90140E0611501
:1016B0007105A9F12091F101222309F443C02530DD
:1016C00009F442C02091E80023FD40C02091E800C9
:1016D00022FD32C02091E80020FFE9CF4091F300C5
:1016E0002091F20030E0342BFC01CF01611571052F
:1016F00059F02830310540F481918093F100615018
:1017000071092F5F3F4FF1CF41E02830310509F0DB
:1017100040E02091E8002E772093E800C8CF4111E7
:10172000C9CF0AC08091F101882361F0853061F052
:101730008091E80083FD0AC08091E80082FFF2CF2B
:1017400080E0089582E0089583E0089581E008959F
:101750002091F8013091F9012617370748F06115FB
:10176000710539F42091E8002E772093E80001C03C
:10177000B901FC0120E06115710591F18091F10141
:10178000882309F440C0853009F43FC08091E80007
:1017900083FD3DC08091E80082FD2FC08091E8006C
:1017A00080FFE9CF2091F3008091F20090E0922B2E
:1017B0006115710559F08830910540F4249120930A
:1017C000F1003196615071090196F2CF21E008973E
:1017D00009F020E08091E8008E778093E800CBCF7D
:1017E0002111CCCF0AC08091F101882361F08530AE
:1017F00061F08091E80083FD0AC08091E80082FFDB
:10180000F2CF80E0089582E0089583E0089581E0BA
:101810000895982F973058F59093E900981739F06C
:101820007091EC002091ED005091F00003C0242F46
:10183000762F50E021FF19C03091EB003E7F3093AE
:10184000EB003091ED003D7F3093ED003091EB00E7
:1018500031603093EB007093EC002093ED005093D7
:10186000F0002091EE0027FF07C09F5FD3CF8F705D
:101870008093E90081E0089580E008958091F2016D
:1018800087FF11C08091E80082FD05C08091F101C1
:101890008111F8CF11C08091E8008B770BC0809147
:1018A000F101882349F08091E80080FFF8CF809112
:1018B000E8008E778093E80008952091E40030914D
:1018C000E50095E64091EC00842F817040FF22C036
:1018D0008091E80080FD1CC08091F101882391F087
:1018E000853091F08091EB0085FD10C04091E400BF
:1018F0005091E5004217530729F39A01915011F7CF
:1019000084E0089582E0089583E0089581E00895D9
:1019100080E008954091E80042FFDECF08950E94E4
:10192000FD0C0E94050DE0EEF0E080818160808377
:10193000E8EDF0E080818F77808319BCA7EDB0E0FF
:101940008C918E7F8C9380818F7E80831092F001AA
:1019500008950F931F93CF93DF930E94FD0C0E9475
:10196000050DC8EDD0E088818F77888388818068F5
:10197000888388818F7D888319BC1092F101109231
:10198000ED011092EF011092EE0100EE10E0F8016F
:1019900080818B7F808388818160888342E060E0E2
:1019A00080E00E94090CE1EEF0E080818E7F808370
:1019B000E2EEF0E0808181608083808188608083B6
:1019C000F80180818E7F8083888180618883DF91A8
:1019D000CF911F910F910895E8EDF0E080818F7E07
:1019E0008083E7EDF0E080818160808384E082BFC6
:1019F00081E08093F0010C94A90CE8EDF0E0808187
:101A00008E7F80831092E20008951092DA00109287
:101A1000E10008951F920F920FB60F9211242F9399
:101A20003F934F935F936F937F938F939F93AF9366
:101A3000BF93EF93FF938091E10082FF0BC08091F1
:101A4000E20082FF07C08091E1008B7F8093E1007C
:101A50000E94710F8091DA0080FF1FC08091D80032
:101A600080FF1BC08091DA008E7F8093DA00809126
:101A7000D90080FF0DC080E189BD82E189BD09B434
:101A800000FEFDCF81E08093F1010E946D0905C049
:101A900019BC1092F1010E947B098091E10080FF46
:101AA00019C08091E20080FF15C08091E2008E7F16
:101AB0008093E2008091E20080618093E200809157
:101AC000D80080628093D80019BC85E08093F10132
:101AD0000E947F098091E10084FF30C08091E20084
:101AE00084FF2CC080E189BD82E189BD09B400FE7C
:101AF000FDCF8091D8008F7D8093D8008091E10048
:101B00008F7E8093E1008091E2008F7E8093E200DF
:101B10008091E20081608093E2008091ED01882352
:101B200011F084E007C08091E30087FD02C081E0EE
:101B300001C083E08093F1010E9481098091E1005E
:101B400083FF29C08091E20083FF25C08091E100DE
:101B5000877F8093E10082E08093F1011092ED0194
:101B60008091E1008E7F8093E1008091E2008E7F82
:101B70008093E2008091E20080618093E20042E085
:101B800060E080E00E94090C8091F0008860809302
:101B9000F0000E947E09FF91EF91BF91AF919F915C
:101BA0008F917F916F915F914F913F912F910F9006
:101BB0000FBE0F901F9018951F920F920FB60F92A5
:101BC00011242F933F934F935F936F937F938F9342
:101BD0009F93AF93BF93CF93DF93EF93FF93C09106
:101BE000E900CF708091EC00D82FD17080FDD0E853
:101BF0001092E9008091F000877F8093F000789444
:101C00000E94200E1092E9008091F000886080937D
:101C1000F000CD2BCF70C093E900FF91EF91DF91E1
:101C2000CF91BF91AF919F918F917F916F915F9174
:101C30004F913F912F910F900FBE0F901F901895CD
:101C40001F93CF93DF93CDB7DEB7AA970FB6F89463
:101C5000DEBF0FBECDBFE2EFF1E088E08E0F9091C6
:101C6000F10091938E13FBCF0E949D098091E800B3
:101C700083FF1FC18091F2019091F301492F50E041
:101C80004A30510508F015C1FA01EA5AFF4F0C9489
:101C90007323803881F0823809F00BC18091F601FE
:101CA0008F708093E9008091EB0085FB882780F995
:101CB0001092E90006C08091EE019091EF01911120
:101CC00082609091E800977F9093E8008093F10004
:101CD0001092F100C8C0282F2D7F09F0EAC0882398
:101CE00019F0823061F0E5C08091F401813009F093
:101CF000E0C0933009F080E08093EF012BC0809129
:101D0000F401811127C08091F6018F7009F4D1C0D0
:101D10008093E9002091EB0020FF1CC0933021F458
:101D20008091EB00806214C09091EB0090619093E1
:101D3000EB0021E030E0A90102C0440F551F8A9555
:101D4000E2F74093EA001092EA008091EB0088608D
:101D50008093EB001092E9008091E800877F86C0B5
:101D60008111A7C01091F4011F778091E300807862
:101D7000812B8093E3008091E800877F8093E800C7
:101D80000E943E0C8091E80080FFFCCF8091E30030
:101D900080688093E300111102C082E001C083E0FB
:101DA0008093F10186C08058823008F082C0809113
:101DB000F4019091F5018C3D53E0950779F583E0AE
:101DC0008A838AE289834FB7F894DE01139620E074
:101DD0003EE051E2E32FF0E050935700E49120FF02
:101DE00003C0E295EF703F5FEF708E2F90E0EA3016
:101DF00010F0C79601C0C0968D939D932F5F24313C
:101E000049F74FBF8091E800877F8093E8006AE23E
:101E100070E0CE0101960E94450B14C0AE014F5FE9
:101E20005F4F6091F6010E948C0ABC01892B09F476
:101E300040C09091E800977F9093E80089819A8153
:101E40000E94A80B8091E8008B778093E80031C056
:101E5000803879F58091E800877F8093E800809151
:101E6000ED018093F1008091E8008E778093E80087
:101E70000E943E0C1EC081111CC09091F401923052
:101E8000C0F48091E800877F8093E8009093ED0193
:101E90000E943E0C8091ED01811106C08091E3000B
:101EA00087FD02C081E001C084E08093F1010E94BF
:101EB00089098091E80083FF0AC08091E800877F4C
:101EC0008093E8008091EB0080628093EB00AA96FB
:101ED0000FB6F894DEBF0FBECDBFDF91CF911F913B
:101EE00008950895CF938091F1018823A1F0C091C6
:101EF000E900CF709091EC00892F817090FD80E80F
:101F0000C82B1092E9008091E80083FD0E94200E0A
:101F1000CF70C093E900CF9108959093750180939D
:101F200074010895E0917401F0917501309721F0EA
:101F30000190F081E02D099480E00895E091740112
:101F4000F0917501309721F00280F381E02D099422
:101F50000895E0917401F0917501309721F00480AB
:101F6000F581E02D0994089520917201309173015B
:101F70008217930771F09093730180937201E0913F
:101F80007401F0917501309721F00680F781E02D02
:101F9000099408952091700130917101821793077F
:101FA00071F09093710180937001E0917401F09150
:101FB0007501309721F00084F185E02D0994089592
:101FC00008950C94E00F0E94431B0E94E3020C94BE
:101FD000051C9F92AF92BF92CF92DF92EF92FF9239
:101FE0000F931F93CF93DF9300D000D000D0CDB7D5
:101FF000DEB70E94FB020DE010E0AA24A394B12CEE
:10200000902E802F0E94E903980129583E4F6901C4
:10201000F901F080F826A1F40150110988F78FEF3B
:1020200089838A831B820E944C1B8160782F9D8349
:102030008C8349815A816B818D810E9480102FC0D1
:102040009091DA0191FF04C08E830E94EF038E818C
:1020500025E030E0A501022E01C0440F0A94EAF702
:10206000E42E4F21C1F029839A828E2191E009F458
:1020700090E09B830E944C1B8160782F9D838C8312
:1020800049815A816B818D810E948010F601808187
:10209000E826E08204C021503109E0F6BDCF0E945D
:1020A000EC1E109176010E94920F1817B9F00E9451
:1020B000920F8093760126960FB6F894DEBF0FBE7E
:1020C000CDBFDF91CF911F910F91FF90EF90DF90E7
:1020D000CF90BF90AF909F900C948C0826960FB62F
:1020E000F894DEBF0FBECDBFDF91CF911F910F914E
:1020F000FF90EF90DF90CF90BF90AF909F900895AA
:10210000CF93DF93CDB7DEB72B970FB6F894DEBF32
:102110000FBECDBF4F83588769877A878B87DE01D3
:10212000119686E0FD0111928A95E9F785E0FE019E
:10213000379601900D928A95E1F749815A816B811A
:102140007C818D819E810E94CF162B960FB6F894CC
:10215000DEBF0FBECDBFDF91CF910895CF9388230F
:1021600009F4C2C0C82F823859F40E94920F81FD31
:10217000BBC089E30E94A9190E94761A89E30CC0AA
:10218000833879F40E94920F80FDAEC083E50E94EF
:10219000A9190E94761A83E50E94EB19CF910C943D
:1021A000761A843859F40E94920F82FD9DC087E40C
:1021B0000E94A9190E94761A87E4EECF8CEF8C0F4B
:1021C000813A48F48C2F0E942F2181118DC08C2FD1
:1021D0000E94A919E3CF80E28C0F883048F4C770C1
:1021E00081E001C0880FCA95EAF70E942F1AD6CF66
:1021F0008BE58C0F833078F4C53A29F0C63A31F07C
:1022000083E890E005C081E890E002C082E890E0B9
:10221000CF910C94B40F88E58C0F833108F064C023
:10222000C83A39F1C93A41F1CA3A49F1CB3A51F1C8
:10223000CC3A59F1CD3A61F1C03B69F1CE3A71F136
:10224000CF3A79F1C13B81F1C23B89F1C33B91F1B6
:10225000C43B99F1C53BA1F1C63BA9F1C73BB1F124
:10226000C83BB9F1C93BC1F1CA3BC9F180E090E07C
:1022700038C082EE90E035C089EE90E032C08AEE40
:1022800090E02FC085EB90E02CC086EB90E029C059
:1022900087EB90E026C08CEC90E023C08DEC90E0C2
:1022A00020C083E891E01DC08AE891E01AC082E96D
:1022B00091E017C084E991E014C081E292E011C07E
:1022C00083E292E00EC084E292E00BC085E292E0ED
:1022D00008C086E292E005C087E292E002C08AE28E
:1022E00092E0CF910C94CA0FCF910895882309F4FE
:1022F0004BC0823859F40E94920F81FF45C089E398
:102300000E94A9190E94761A89E30CC0833871F4DF
:102310000E94920F80FF38C083E50E94A9190E9495
:10232000761A83E50E94EB190C94761A843859F4D6
:102330000E94920F82FF28C087E40E94A9190E9480
:10234000761A87E4EFCF9CEF980F913A58F390E21A
:10235000980F983050F4877091E001C0990F8A95DA
:10236000EAF7892F0E94351ADFCF9BE5980F93304B
:1023700020F480E090E00C94B40F885A833120F46C
:1023800080E090E00C94CA0F0895882321F00E9409
:102390002F1A0C94761A0895882321F00E94351A7A
:1023A0000C94761A08957F928F929F92AF92BF926B
:1023B000CF92DF92EF92FF920F931F93CF93DF9311
:1023C0001F92CDB7DEB77C01C62E772EFC010581AA
:1023D00002950F70128111110E944C1A0E94A219CD
:1023E000882379F0112369F080E28C0D883048F061
:1023F00082E00E948B190E94A21991E0D82ED92662
:1024000001C0D12CE72DE295EF70F0E0E05AFF4FCC
:102410000C947323872D807F072D0F70882311F074
:102420000295007F112389F0002309F496C180E210
:102430008C0D883020F4802F0E942F1A03C0802F2B
:102440000E943F1A0E94761A88C18C2D0E94761134
:10245000002309F49BC180E28C0D883020F4802F8A
:102460000E94351A03C0802F0E94451A0E94761AD6
:102470008DC1872D807F972D9F70803211F4892F19
:1024800003C0892F8295807FCC2021F0F1E0CF1608
:10249000A1F01CC0112339F0002311F1013001F526
:1024A0000E945F1A73C1002319F0013009F46EC154
:1024B00089830E94621A89810FC1112321F00230A1
:1024C00008F064C10DC0011161C106C1112359F0AA
:1024D000002331F0F701958190FF3FC19F709583F4
:1024E0000E94C51153C1002309F4F6C03CC1872DD9
:1024F00086958695837090E0009719F0019761F0BA
:1025000045C1112321F08C2D972D937002C080E0DE
:1025100090E00E94B40F3AC1112321F08C2D972D29
:10252000937002C080E090E00E94CA0F2FC18C2DF2
:10253000112319F00E94F41D02C00E945C1E0E942B
:10254000E11E24C1872D837009F052C011111EC1F4
:102550008C2D829586958770880F880F9C2D9F7093
:10256000892E912CA12CB12C082E04C0880C991C0A
:10257000AA1CBB1C0A94D2F7C4FE14C00FE010E0E2
:1025800020E030E0B901A80104C0440F551F661FC8
:10259000771F8A95D2F7CB01BA0160957095809527
:1025A000909503C060E070E0CB01272D269526951D
:1025B000237030E02230310569F02330310589F095
:1025C000682979298A299B292130310571F00E94D7
:1025D0001718DCC0682979298A299B290E94331899
:1025E000D5C00E941718C501B4010E94FB17CEC0C8
:1025F000112319F0872D817001C08695882309F475
:10260000C5C08C2D829586958770880F880F9C2D6C
:102610009F70892E912CA12CB12C082E04C0880CFF
:10262000991CAA1CBB1C0A94D2F7C4FE14C00FE06C
:1026300010E020E030E0B901A80104C0440F551FAC
:10264000661F771F8A95D2F7CB01BA016095709506
:102650008095909503C060E070E0CB01272D269512
:1026600026952370422F50E04230510569F04330E7
:10267000510589F0682979298A299B29413051051A
:1026800071F00E94F11882C0682979298A299B2952
:102690000E940D197BC00E94F118C501B4010E946F
:1026A000D51874C08C2D90E0FC01E05EF109E53195
:1026B000F10508F04EC0E059FF4F0C9473230C2D28
:1026C0000F70872D8F71112321F00E946E18802FBB
:1026D00007CF0E948F18802F0E94CC1157C0112362
:1026E00039F0011153C0872D8F710E94B4184EC06C
:1026F000023008F04BC0F7CF112339F0872D8F71CE
:102700000E946E1843C01123C9F3872D8F710E9458
:102710008F183CC0112329F0872D8F710E94591802
:1027200035C00E944F1832C0112351F0172D1F7170
:10273000812F0E946E1863E0812F0E94821926C0AB
:1027400081E00E948B19023008F182E00E948B190F
:102750001DC0112331F0002389F28C2D0E94AE1090
:1027600015C0002391F28C2D0E9476110FC0472DC9
:102770004F706C2DC7010E94C5040E94731706C0DC
:10278000472D4F706C2DC7010E949C05DD20F9F08C
:102790000E947E1980FD1BC0F70112820E947819E9
:1027A0000E946E18C7010E94F6130E9478190F90BC
:1027B000DF91CF911F910F91FF90EF90DF90CF901D
:1027C000BF90AF909F908F907F900C948F180F9038
:1027D000DF91CF911F910F91FF90EF90DF90CF90FD
:1027E000BF90AF909F908F907F9008950F931F930D
:1027F000CF93DF93EC01888199812B813C81232B3E
:10280000B9F09F3F11F48F3F99F0CE010E94F4047C
:10281000882371F0688179818A810E9474198C0102
:102820000E9429190E94F017B801CE010E94D3110D
:10283000DF91CF911F910F9108950E944C1A0E9431
:102840005C1A0E94211A0E94761A0E94921F0E940E
:10285000E11E80E090E00E94B40F80E090E00C94D4
:10286000CA0F0E943C1A0C941D140E946919292F4A
:1028700022952F7030E02C3031054CF42A30310590
:102880006CF42250310922303105A8F407C02C30F5
:10289000310569F02F30310551F00DC0803F69F0EE
:1028A00018F4803E40F409C0843F29F406C093FB2D
:1028B000882780F9089580E0089581E00895CF93F6
:1028C000DF9300D000D01F92CDB7DEB70F900F90EE
:1028D0000F900F900F90DF91CF910895CF93DF93DA
:1028E00000D000D000D0CDB7DEB726960FB6F89452
:1028F000DEBF0FBECDBFDF91CF9108951F93CF9361
:10290000DF93C091850116E080918601C81799F088
:10291000D0E01C9FF0011D9FF00D1124E957FE4FE0
:102920004081518162817381848195810E946E14FE
:102930002196C770E9CFDF91CF911F910895409103
:10294000B7015091B8016091B9017091BA018091BD
:10295000BB019091BC010C946E148091BC018295D6
:102960008F7009F054C08091B901882309F44FC0D9
:1029700080918501A09186016091B7017091B801A5
:102980004091BA015091BB01B6E08A1709F43FC0EB
:1029900090E041155105C1F17F3F11F46F3FA1F166
:1029A000B89FF001B99FF00D1124E957FE4F218126
:1029B00072132AC02081621327C02281211124C0F2
:1029C000238134812417350710F421503109241B49
:1029D000350B283C3105C0F42091BC012F702061DB
:1029E0002093BC0126E0289FF001299FF00D1124BF
:1029F000E457FE4F80818F708061808387EB91E088
:102A00000E94F6130C947E1401968770BECF089531
:102A1000CF92DF92EF92FF920F931F93CF93DF93AA
:102A2000CDB7DEB762970FB6F894DEBF0FBECDBF4D
:102A30008C0185E0F801DE011D9601900D928A95CA
:102A4000E1F7D8014C9111965C91119712966C9117
:102A500012971396CD90DC9014973091B701709136
:102A6000B8018091BA019091BB01009709F46BC144
:102A70007F3F19F43F3F09F466C1E090B901EE20B1
:102A800009F4C0C02091BC01C816D90628F0F6018F
:102A9000E81BF90BCF0104C0809590958C0D9D1D0E
:102AA000FF24F394883C910578F0F12C207F09F005
:102AB000C6C07C2DD98AC88A89890E945F1487EB99
:102AC00091E00E94F613B1C0822F807F09F046C0CA
:102AD000751314C0341312C0611110C02F7020611F
:102AE0002093BC010E949F1487EB91E00E94F61393
:102AF0008091BC01D80115968C932EC0CD2819F178
:102B00005F3F11F44F3FF9F0F62E61111CC0809128
:102B100085012091860136E0821709F45AC090E0C1
:102B2000389FF001399FF00D1124E957FE4F718154
:102B3000571306C07081471303C07281711103C01F
:102B400001968770E9CFF62E662309F418C18091AB
:102B5000BC0181608093BC01F12C11C1751308C0C8
:102B6000341306C0611104C08091BC01D801C3C0F8
:102B70004D875E878D859E856A8B0E9435146A8994
:102B80008823E1F16623D1F12091BC01822F829547
:102B90008F7090E0029774F08091B7019091B80126
:102BA00098878F831986DB86CA862C87CE01079685
:102BB0000E94F61386E0F801A7EBB1E001900D92B8
:102BC0008A95E1F70E94AD140E949F14FF24F394AC
:102BD000D6C04D875E878D859E850E946919292FF5
:102BE00022952F7030E0223031050CF0BCC09F7070
:102BF00009F0B6C0805E883008F4C1C0C8010E94E8
:102C0000F613E4CFC816D90608F453C0F601E81B42
:102C1000F90BCF01883C910508F450C0F12C7C2DB4
:102C2000D98AC88A89890E945F14E7EBF1E086E0BF
:102C3000DF011D928A95E9F70E949F14A0C07513C9
:102C400014C0341312C0611110C08091BC01F8018E
:102C50008583C8010E94F61386E0E7EBF1E0DF010F
:102C60001D928A95E9F7FE2C8AC04D875E878D8577
:102C70009E856A8B0E9435146A89882309F4BECF29
:102C8000662309F4BBCF2091BC01822F82958F70FF
:102C900090E002970CF48ECF8091B7019091B8012B
:102CA0009A8389831B82DD82CC822E83CE0101969A
:102CB0007FCF809590958C0D9D1DACCFF62E662311
:102CC00009F49CCF75132EC034132CC02091BC0185
:102CD00020FD1FC0822F82958F70D9F0D8011596E4
:102CE0002C9315978F3049F08F5F982F9295907F96
:102CF000822F8F70892B15968C93C8010E94F61332
:102D000086E0F801A7EBB1E001900D928A95E1F71A
:102D100093CF86E0F801A7EBB1E001900D928A9580
:102D2000E1F72DC04D875E878D859E850E94351405
:102D3000811140CF8091BC0181608093BC01C801AA
:102D40000E94F6131CC0662309F458CF4D875E8796
:102D50008D859E850E943514882309F44FCF2ACF94
:102D6000811148CF0CC0243031050CF047CF9F7043
:102D700009F440CFF8019581907F09F03BCF8F2D6A
:102D800062960FB6F894DEBF0FBECDBFDF91CF9134
:102D90001F910F91FF90EF90DF90CF9008951F93B8
:102DA000CF93DF93CDB7DEB72C970FB6F894DEBF85
:102DB0000FBECDBF4F83588769877A878B879C87E3
:102DC000CE0107960E940815882369F08F819885A7
:102DD0002A853B85232BF1F19F3F09F063C08F3F8C
:102DE00009F060C037C086E0FE013796DE0111961B
:102DF00001900D928A95E1F76F817885EA85FB85D0
:102E0000309741F17F3F11F46F3F21F1209186010E
:102E100030E0C9010196877099274091850150E003
:102E20008417950709F447C069837A83FD83EC838F
:102E300096E0929FD001939FB00D1124A957BE4FE9
:102E4000FE01319601900D929A95E1F780938601EB
:102E50000E947E1416E08091850190918601891769
:102E6000C1F1189FC001112489579E4F0E94081577
:102E7000882379F1E09185011E9FF0011124E95723
:102E8000FE4F4081518162817381848195810E94CE
:102E90006E148091850190E0019687709927809348
:102EA0008501D9CF4F81588569857A858B859C8529
:102EB0000E946E14CFCF0E9431141092860110929E
:102EC0008501E7EBF1E086E0DF011D928A95E9F7E5
:102ED000C1CF2C960FB6F894DEBF0FBECDBFDF91E9
:102EE000CF911F910895EF92FF920F931F93CF936D
:102EF000DF938C01892B09F46CC0F12CEE24E39450
:102F0000E8012196F8018491843740F4843008F078
:102F100051C0813081F0823019F15BC0853709F4EE
:102F200044C0A8F19CE7980F903708F052C08F7703
:102F30000E94761141C00E5F1F4FFE01C49180E2D6
:102F40008C0F883048F4C7708E2D01C0880FCA9549
:102F5000EAF70E944F1A14C08C2F0E94AE102DC0A9
:102F60000E5F1F4FFE01C49180E28C0F883058F431
:102F7000C7708E2D01C0880FCA95EAF70E94551AB6
:102F80000E94761A1AC08C2F0E94761116C00E5F0E
:102F90001F4FFE01C491CC2381F08FE99FE0019780
:102FA000F1F700C00000C150F6CF0E5F1F4FFE01C9
:102FB000F49003C00E94AE108E018F2D882309F477
:102FC0009FCFEFE9FFE03197F1F700C0000081509B
:102FD000F5CFDF91CF911F910F91FF90EF90089562
:102FE00008956093C1017093C2018093C3019093CF
:102FF000C4010C941D140F931F930091C1011091F3
:10300000C2012091C3013091C401DC01CB01802BAE
:10301000912BA22BB32B8093C1019093C201A0935B
:10302000C301B093C4011F910F910C941D140F9311
:103030001F930091C1011091C2012091C3013091F1
:10304000C401DC01CB0180239123A223B32380930D
:10305000C1019093C201A093C301B093C4011F9119
:103060000F910C941D140F931F930091C1011091A7
:10307000C2012091C3013091C401DC01CB01802742
:103080009127A227B3278093C1019093C201A093F7
:10309000C301B093C4011F910F910C941D141092A1
:1030A000BD011092BE011092BF011092C0010C949C
:1030B0001D1441E050E060E070E004C0440F551F73
:1030C000661F771F8A95D2F74093BD015093BE01CA
:1030D0006093BF017093C0010C941D1441E050E057
:1030E00060E070E004C0440F551F661F771F8A958B
:1030F000D2F78091BD019091BE01A091BF01B09126
:10310000C001482B592B6A2B7B2B4093BD01509358
:10311000BE016093BF017093C0010C941D1441E087
:1031200050E060E070E004C0440F551F661F771F39
:103130008A95D2F740955095609570958091BD0124
:103140009091BE01A091BF01B091C00148235923C5
:103150006A237B234093BD015093BE016093BF015E
:103160007093C0010C941D1441E050E060E070E0E9
:1031700004C0440F551F661F771F8A95D2F78091B0
:10318000BD019091BE01A091BF01B091C00148273F
:1031900059276A277B274093BD015093BE01609356
:1031A000BF017093C0010C941D140F931F930091E5
:1031B000BD011091BE012091BF013091C001DC0121
:1031C000CB01802B912BA22BB32B8093BD0190932D
:1031D000BE01A093BF01B093C0011F910F910C9449
:1031E0001D140F931F930091BD011091BE012091FA
:1031F000BF013091C001DC01CB0180239123A223C8
:10320000B3238093BD019093BE01A093BF01B093FF
:10321000C0011F910F910C941D140F931F930091E7
:10322000BD011091BE012091BF013091C001DC01B0
:10323000CB0180279127A227B3278093BD019093CC
:10324000BE01A093BF01B093C0011F910F910C94D8
:103250001D140895CF92DF92EF92FF920F931F9368
:10326000CF93DF938C01C090C101D090C201E09058
:10327000C301F090C4018091BD019091BE01A09165
:10328000BF01B091C001C82AD92AEA2AFB2ACFE19E
:10329000D0E0D701C6010C2E04C0B695A79597952E
:1032A00087950A94D2F780FF06C0B8018C2F0E9440
:1032B000F107019721F4219760F780E001C08C2F7E
:1032C000DF91CF911F910F91FF90EF90DF90CF9002
:1032D0000895CF93DF93EC010E942A19BE010E944A
:1032E000F107DF91CF910895CB010E9469190895EC
:1032F0008091C50185958595859508958091C50135
:103300008770089598E0899F90011124262B2093BF
:10331000C5010C946E182091C5018095822380937D
:10332000C501982F977069F430E0482F552747FD65
:1033300050952417350729F08595859585950C942A
:103340008F1808959091C501977081E009F480E08D
:10335000089590910C01992321F090910D01911104
:1033600009C020910E0130910F01F90132969FEFB3
:1033700040E01FC0982F9695969596959F3050F5F2
:10338000E0910E01F0910F01E90FF11D877021E02E
:1033900030E0A90102C0440F551F8A95E2F7CA0127
:1033A0009181892B818308959F3F39F04F5F4E3083
:1033B00041F051915813F8CF0DC05111F7CF942F10
:1033C000F5CF9F3F39F0F901E90FF11D97FDFA950F
:1033D00082830895089590910C01992321F0909192
:1033E0000D01911109C020910E0130910F01F901D9
:1033F0003296205F3F4F1FC0982F969596959695D1
:103400009F30F0F4E0910E01F0910F01E90FF11DF2
:10341000877021E030E0A90102C0440F551F8A9552
:10342000E2F7CA01809591818923818308953196BD
:10343000E217F30729F090819813F9CF1082F7CFA4
:10344000089581E090E0E0910E01F0910F01E80F06
:10345000F91F1082019680319105A9F70895909186
:10346000D901892B8093D901089580959091D90134
:1034700089238093D90108951092D90108959091DC
:10348000D801892B8093D801089580959091D80117
:1034900089238093D80108951092D80108959091BE
:1034A000D701892B8093D701089580959091D701FA
:1034B00089238093D70108951092D70108958093AE
:1034C000C60108951092C601089580910E01909151
:1034D0000F01FC0131969C01205F3F4F80E09191EC
:1034E00091118F5FE217F307D1F70895E0910E0174
:1034F000F0910F018091D9018083E0910E01F0914C
:103500000F0190818091D801892B8083E0910E0179
:10351000F0910F0190818091D701892B8083809158
:10352000C601882361F0E0910E01F0910F019081B6
:10353000892B80830E94651A81111092C6018091A7
:103540000E0190910F010C949E0F20E0009739F02E
:10355000AC0141505109842395232F5FF7CF822F6F
:103560000895CF92DF92EF92FF926C01EE24FF2438
:10357000C114D104E104F10421F0C701B60120E136
:1035800001C020E0C72ED82EE92EFF24C114D1049B
:10359000E104F10419F0285FC701B6016B017C0159
:1035A00054E0F694E794D794C7945A95D1F7C11490
:1035B000D104E104F10419F02C5FC701B6016B01DD
:1035C0007C0142E0F694E794D794C7944A95D1F7EA
:1035D000C114D104E104F10419F02E5FC701B60152
:1035E000DC01CB01B695A79597958795892B8A2BFA
:1035F0008B2B09F02F5F822FFF90EF90DF90CF9001
:1036000008958091F101843039F11092DB0120E4BA
:1036100088E190E00FB6F894A895809360000FBE03
:103620002093600080E00E948C0883B7817F8460D3
:1036300083BF83B7816083BF7894889583B78E7F7B
:1036400083BF0FB6F894A89580916000886180933D
:103650006000109260000FBE0895089508950E94C2
:103660002D1B0E94FB020E942E1B0E94F00391E082
:10367000811101C090E0892F08950E9431140E94A9
:10368000920F0C948C0882E084BD93E095BD9AEF74
:1036900097BD80936E0008952FB7F8948091DC0158
:1036A0009091DD01A091DE01B091DF012FBF08955F
:1036B000CF92DF92EF92FF920F931F932FB7F89460
:1036C0004091DC015091DD016091DE017091DF01DC
:1036D0002FBF6A017B01EE24FF248C0120E030E043
:1036E000C016D106E206F30610F4415051099A01C2
:1036F000281B390BC9011F910F91FF90EF90DF90AC
:10370000CF9008951F920F920FB60F9211248F93AE
:103710009F93AF93BF938091DC019091DD01A091C5
:10372000DE01B091DF010196A11DB11D8093DC0186
:103730009093DD01A093DE01B093DF01BF91AF91C3
:103740009F918F910F900FBE0F901F9018950E9420
:103750008F0CF8942FEF87EA91E62150804090403B
:10376000E1F700C0000087E090EBDC018093FB01F3
:103770009093FC01A093FD01B093FE019CE088E1D1
:103780000FB6F894A895809360000FBE90936000E8
:10379000FFCFEF92FF920F931F93CF93DF93D82F1A
:1037A000CDE08C2F0E94E90305E010E0E82EF12C1B
:1037B000C701002E02C0959587950A94E2F780FF15
:1037C00009C0602F7C2F80E00E949D05D81302C0A5
:1037D00081E006C00150110958F7C15010F780E090
:1037E000DF91CF911F910F91FF90EF900895CF93AC
:1037F000C82F8CE20E94C91B882321F08C2FCF9107
:103800000C94C91B80E0CF910895CF930E944C1D6A
:10381000811102C00E94321DC5E6C15049F00E94CC
:10382000FB028FE39CE90197F1F700C00000F5CFA0
:1038300089E20E94F71B811113C18AE20E94F71BE3
:1038400081110E94321D85E00E94F71B81110E94A8
:10385000A71B0E94571D8093DA0187E00E94F71B87
:103860008823A9F18BE10E94F71B882351F08091F6
:10387000DA0181FB222720F991E0922790FB81F960
:103880000EC08EE00E94F71B882361F08091DA0160
:1038900082FB222720F991E0922790FB82F9809306
:1038A000DA0115C080E10E94F71B9091DA018823AC
:1038B00041F093FB222720F981E0822780FB93F9D6
:1038C00004C0892F809580FB90F99093DA01809154
:1038D000DA010E945B1D0E94691D8093FA0180EE4F
:1038E0000E94F71B882341F08091FA01982F909550
:1038F00090FB80F98093FA0189E30E94F71B8823EB
:1039000059F08091FA0181FB222720F991E092275A
:1039100090FB81F98093FA0182EE0E94F71B8823C5
:1039200059F08091FA0182FB222720F991E0922739
:1039300090FB82F98093FA0186EE0E94F71B8823A0
:1039400059F08091FA0183FB222720F991E0922718
:1039500090FB83F98093FA0183EE0E94F71B882382
:1039600059F08091FA0184FB222720F991E09227F7
:1039700090FB84F98093FA0185E30E94F71B88236A
:1039800059F08091FA0185FB222720F991E09227D6
:1039900090FB85F98093FA0181E30E94F71B88234D
:1039A00059F08091FA0186FB222720F991E09227B5
:1039B00090FB86F98093FA0181E10E94F71B88232E
:1039C00059F08091FA0187FB222720F991E0922794
:1039D00090FB87F98093FA018091FA010E946D1D96
:1039E0008091FA0187FB882780F980930D0187E297
:1039F0000E94F71BC82F8EE10E94F71B8111C26045
:103A00008FE10E94F71B8111C46080E20E94F71BC6
:103A10008111C86081E20E94F71B8111C06182E2BE
:103A20000E94F71B8111C06283E20E94F71B811183
:103A3000C06484E20E94F71B882311F0C06802C0B2
:103A4000CC2329F08C2F0E94641D6C2F03C00E9490
:103A5000601D682F70E080E090E0CF910C94F1172A
:103A6000CF9108956DEE7EEF80E090E00E94AC2350
:103A700060E082E090E00E949B2360E083E090E0C1
:103A80000E949B2360E084E090E00E949B2360E022
:103A900085E090E00C949B2380E090E00E949523C9
:103AA00021E08D3E9E4F09F020E0822F089582E0B4
:103AB00090E00C948D23682F82E090E00C949B237F
:103AC00083E090E00C948D23682F83E090E00C94C9
:103AD0009B2384E090E00C948D23682F84E090E099
:103AE0000C949B238091E20180FF0BC06091130135
:103AF00085E0689FB0011124759567957595679568
:103B00002BC081FF09C06091130185E0689FB0015F
:103B100011247595679520C082FF07C0609113013D
:103B200085E0689FB001112417C09091E3019923AB
:103B3000D1F060911201961788F72091130185E06A
:103B4000289F90011124929FA001939F500D112452
:103B500070E0CA010E945F236038710540F461156E
:103B6000710539F002C065E070E0862F08958FE797
:103B7000089581E008958091E20180FF08C060917E
:103B8000110170E0759567957595679521C081FF66
:103B900006C06091110170E07595679519C082FFAC
:103BA00004C06091110170E010C09091E30199236D
:103BB000C1F0609110019617A0F780911101899FC3
:103BC000C001112470E00E945F236038710528F461
:103BD0006115710521F0862F08958FE7089581E022
:103BE000089561E070E0F4CF803F21F40E94721DDF
:103BF000819504C0813F29F40E94721D8093E601E3
:103C00000895823F21F40E94721D819504C0833F74
:103C100029F40E94721D8093E5010895893F19F4EB
:103C20000E94BB1D05C08A3F31F40E94BB1D8195D7
:103C30008093E70108958B3F21F40E94BB1D81957D
:103C400004C08C3F29F40E94BB1D8093E8010895B5
:103C5000843F21F48091E401816017C0853F21F405
:103C60008091E401826011C0863F21F48091E401DB
:103C700084600BC0873F21F48091E401886005C017
:103C8000883F31F48091E40180618093E4010895DC
:103C90008D3F21F48091E20181600BC08E3F21F4C1
:103CA0008091E201826005C08F3F29F48091E2019A
:103CB00084608093E2010895803F39F48091E601A9
:103CC00087FF6CC01092E60169C0813F29F48091A2
:103CD000E6011816BCF362C09091E501823F29F419
:103CE00097FF5CC01092E50159C0833F19F4191683
:103CF000CCF354C0893F41F48091E70118160CF0D1
:103D00004DC01092E7014AC08A3F29F48091E70133
:103D100087FF44C0F6CF8B3F39F48091E80187FFDD
:103D20003DC01092E8013AC08C3F29F48091E8012F
:103D30001816BCF333C0843F21F48091E4018E7FD8
:103D400017C0853F21F48091E4018D7F11C0863F2B
:103D500021F48091E4018B7F0BC0873F21F4809197
:103D6000E401877F05C0883F31F48091E4018F7EB4
:103D70008093E40113C08D3F21F48091E2018E7F96
:103D80000BC08E3F21F48091E2018D7F05C08F3FF3
:103D900029F48091E2018B7F8093E2018091E5011B
:103DA00081110EC08091E60181110AC08091E70166
:103DB000811106C08091E801811102C01092E301D7
:103DC000089584EE91E00E94A90F0E944C1B9093ED
:103DD000E1018093E00108951F93CF93DF938091D9
:103DE000E0019091E1010E94581BAC019091E30128
:103DF000992321F02091140130E006C02091150193
:103E00008AE0289F900111244217530708F486C0C6
:103E10008091E501C091E601D091E7011091E801A0
:103E2000811107C0C11176C0D11174C0111172C0C7
:103E300075C09F3F19F09F5F9093E301181624F41B
:103E40000E94721D8093E5018091E50187FF05C006
:103E50000E94721D81958093E5011C1624F40E9436
:103E6000721D8093E6018091E60187FF05C00E94E4
:103E7000721D81958093E6016091E501662339F119
:103E8000C091E601CC2319F1772767FD7095872F44
:103E9000972F0E94662223E333E343E35FE30E940C
:103EA000CA220E942E226093E5016C2F772767FDBE
:103EB0007095872F972F0E94662223E333E343E315
:103EC0005FE30E94CA220E942E226093E6011D1623
:103ED00024F40E94BB1D8093E7018091E70187FFD6
:103EE00005C00E94BB1D81958093E701111624F443
:103EF0000E94BB1D8093E8018091E80187FF05C007
:103F00000E94BB1D81958093E801DF91CF911F91A5
:103F10000C94E11E9F3F09F08ECF96CFDF91CF9199
:103F20001F910895E4EEF1E085E0DF011D928A958E
:103F3000E9F71092E3011092E2010895833081F1D4
:103F400028F4813059F08230D1F00895853009F499
:103F500049C0B8F1863009F456C008958091150122
:103F6000262F30E0280F311D2F3F310524F4680F34
:103F70006093150108958FEF809315010895809146
:103F80001401262F30E0280F311D2F3F310524F476
:103F9000680F6093140108958FEF809314010895C2
:103FA00080911301262F30E0280F311D2F3F31055E
:103FB00024F4680F6093130108958FEF8093130129
:103FC000089580911201262F30E0280F311D2F3FD8
:103FD000310524F4680F6093120108958FEF8093E8
:103FE0001201089580911101262F30E0280F311D14
:103FF0002F3F310524F4680F6093110108958FEF6E
:1040000080931101089580911001262F30E0280F30
:10401000311D2F3F310524F4680F6093100108957E
:104020008FEF809310010895833011F128F48130CF
:1040300049F0823091F00895853081F120F1863089
:10404000C1F1089580911501681720F4861B8093B3
:1040500015010895109215010895809114016817B3
:1040600020F4861B80931401089510921401089582
:1040700080911301681720F4861B80931301089523
:1040800010921301089580911201681720F4861B85
:1040900080931201089510921201089580911101E8
:1040A000681720F4861B8093110108951092110166
:1040B000089580911001681720F4861B80931001E9
:1040C00008951092100108950F931F938D3109F4F4
:1040D0006BC008F03FC08E3009F47FC0C0F4873059
:1040E00009F469C068F4863009F0B1C08091DA0142
:1040F000817F8E7F8093DA0181E08093EA01A8C0FE
:10410000883009F4A2C08B3009F49FC0A0C086316A
:1041100009F49BC078F4803109F472C0813109F050
:1041200096C00E94311490910D0181E089278093FF
:104130000D018BC0893109F488C08B3109F087C02B
:104140008091DA0181FB222720F991E0922790FBF0
:1041500081F94CC0853309F470C048F4873209F402
:104160006CC008F459C0893209F467C070C0833448
:1041700038F48A3308F04EC0883309F466C067C04B
:10418000833409F45AC0883409F061C00E943114A4
:104190000FEF13ED20E3015010402040E1F700C085
:1041A00000000E94A71B51C00E94E8210E94920FAC
:1041B0000E948C084AC09091DA01892F8095817005
:1041C00080FB90F929F0966098609093DA0140C0E6
:1041D000997F977F9093DA0138C08091DA0182FB52
:1041E000222720F991E0922790FB82F98093DA014F
:1041F000992359F18091DA0181608093DA0125C019
:104200008091DA0183FB222720F991E0922790FB2D
:1042100083F9ECCF895301C08D5141E050E060E05B
:1042200070E08A019B0104C0000F111F221F331F81
:104230008A95D2F7C901B80104C061E070E080E05E
:1042400090E00E94F1170E94311481E001C080E0EB
:104250001F910F91089580E0089580E00895CF9315
:10426000C82F8091EA01813079F018F08230E9F1AD
:1042700087C0E0910E01F0910F018081813169F0DA
:10428000823209F07FC009C0E0910E01F0910F0168
:104290008081813111F0823261F48C2F0E942B21B8
:1042A000811104C08C2F0E9464201DC081E090E029
:1042B0001AC08C2F0E942D21811114C0C43179F0B5
:1042C00048F4CB3079F0C03109F060C082E08093CF
:1042D000EA0108C0C93219F0C83321F057C0109262
:1042E000EA0154C081E0817053C0C93289F118F5E8
:1042F000C43171F1A8F4C73009F046C08AE0809358
:10430000150194E19093140193E09093130180932D
:10431000120188E08093110188E28093100134C07B
:10432000CE51C63088F5EC2FF0E0E65DFE4F80817F
:104330008093E90129C0CE34E9F020F4CB3421F593
:104340006AE013C0C13579F0C235F1F461E00DC007
:104350008091E901882319F01092E90115C081E0EC
:104360008093EA0115C061E006C08091E9010E94D6
:104370009E1F0AC06AE08091E9010E94142004C0D7
:104380001092EA0180E004C081E002C080E0ABCF7F
:10439000CF910895E1E8F0E080818860808380819A
:1043A000816080838FB7F89493E09093890090EDBB
:1043B000909388008FBF0895EFE6F0E080818260DF
:1043C00080830895EFE6F0E080818D7F80830895FB
:1043D000EFE6F0E0908182E08927808308951F92C4
:1043E0000F920FB60F9211242F933F934F935F9329
:1043F0006F937F938F939F93AF93BF93EF93FF93AD
:104400008091EB019091EC0101969093EC018093E7
:10441000EB01811103C082E00E948C08E091EC0165
:10442000E695E695F0E0E35FFB4FE4918091EB01C8
:104430008E1303C080E00E948C08FF91EF91BF9122
:10444000AF919F918F917F916F915F914F913F912C
:104450002F910F900FBE0F901F9018950E9435223C
:104460006894B1110C94C42208950E94A92288F086
:104470009F5798F0B92F9927B751B0F0E1F0660F28
:10448000771F881F991F1AF0BA95C9F714C0B13069
:1044900091F00E94C322B1E008950C94C322672FCB
:1044A000782F8827B85F39F0B93FCCF38695779598
:1044B0006795B395D9F73EF4909580957095619581
:1044C0007F4F8F4F9F4F0895E89409C097FB3EF4AC
:1044D00090958095709561957F4F8F4F9F4F992351
:1044E000A9F0F92F96E9BB279395F69587957795CF
:1044F0006795B795F111F8CFFAF4BB0F11F460FF8F
:104500001BC06F5F7F4F8F4F9F4F16C0882311F0E6
:1045100096E911C0772321F09EE8872F762F05C0FA
:10452000662371F096E8862F70E060E02AF09A9595
:10453000660F771F881FDAF7880F9695879597F98A
:10454000089557FD9058440F551F59F05F3F71F083
:104550004795880F97FB991F61F09F3F79F08795EA
:104560000895121613061406551FF2CF4695F1DF73
:1045700008C0161617061806991FF1CF8695710503
:10458000610508940895E894BB2766277727CB0137
:1045900097F908950E94DD220C944E230E94402337
:1045A00038F00E94472320F0952311F00C94372314
:1045B0000C943D2311240C94C4220E94A12270F378
:1045C000959FC1F3950F50E0551F629FF001729FB8
:1045D000BB27F00DB11D639FAA27F00DB11DAA1FC7
:1045E000649F6627B00DA11D661F829F2227B00D14
:1045F000A11D621F739FB00DA11D621F839FA00D9F
:10460000611D221F749F3327A00D611D231F849FEE
:10461000600D211D822F762F6A2F11249F57504045
:104620009AF0F1F088234AF0EE0FFF1FBB1F661FC0
:10463000771F881F91505040A9F79E3F510580F089
:104640000C9437230C94C4225F3FE4F3983ED4F3D8
:10465000869577956795B795F795E7959F5FC1F72D
:10466000FE2B880F911D9695879597F9089597F9D8
:104670009F6780E870E060E008959FEF80EC089508
:1046800000240A9416161706180609060895002431
:104690000A9412161306140605060895092E0394AB
:1046A000000C11F4882352F0BB0F40F4BF2B11F41F
:1046B00060FF04C06F5F7F4F8F4F9F4F089597FB40
:1046C000072E16F4009407D077FD09D00E947923B5
:1046D00007FC05D03EF4909581959F4F0895709505
:1046E00061957F4F0895EE0FFF1F0590F491E02D27
:1046F0000994AA1BBB1B51E107C0AA1FBB1FA61729
:10470000B70710F0A61BB70B881F991F5A95A9F77A
:1047100080959095BC01CD010895F999FECF92BD89
:1047200081BDF89A992780B50895A8E1B0E042E0EC
:1047300050E00C94B423262FF999FECF92BD81BD91
:10474000F89A019700B4021631F020BD0FB6F89424
:10475000FA9AF99A0FBE08950196272F0E949C237A
:104760000C949B23DC01CB01FC01F999FECF06C020
:10477000F2BDE1BDF89A319600B40D92415050401F
:08478000B8F70895F894FFCF8B
:1047880002208E081C09F908C50891080101C70113
:1047980028080A03140A404D3639CD0380034A031A
:1047A8001103A402BD02D602EF02010203040506AA
:0447B80007080900E5
:00000001FF
